S01800005472616E736D697474657220636F64652E73726563B4
S11300000C9434000C9451000C9451000C94510045
S11300100C9451000C9451000C9451000C94510018
S11300200C9451000C9451000C9451000C94510008
S11300300C9451000C9451000C9451000C945100F8
S11300400C9451000C9451000C9451000C945100E8
S11300500C9451000C9451000C9451000C945100D8
S11300600C9451000C94510011241FBECFEFD4E026
S1130070DEBFCDBF11E0A0E0B1E0E2EDF2E102C0ED
S113008005900D92A632B107D9F721E0A6E2B1E0BE
S113009001C01D92AD34B207E1F70E948B040C94A9
S11300A067090C9400001092B9008FEF8093B80098
S11300B0089594EA9093BC009091BC009923E4F7CE
S11300C09091B900987F983091F48093BB0084E8B4
S11300D08093BC008091BC008823E4F78091B90030
S11300E0887F883131F0803231F482E0089580E0F5
S11300F0089581E0089583E0089594EA9093BC0004
S11301009091BC009923E4F79091B900987F9031C5
S113011091F48093BB0084E88093BC008091BC0080
S11301208823E4F78091B900887F803431F08834E3
S113013031F482E0089580E0089581E0089583E039
S113014008958093BB0084E88093BC008091BC0038
S11301508823E4F78091B900887F883221F08033C6
S113016021F481E0089580E0089582E0089584EC0C
S11301708093BC008091BC008823E4F78091BB008D
S1130180089584E88093BC008091BC008823E4F740
S11301908091BB00089584E98093BC008091BC00E9
S11301A084FDFCCF08952FE789EA93E02150804035
S11301B09040E1F700C0000080ED0E94590083E107
S11301C00E94A10087E00E94A1000E94CB0080ED64
S11301D00E94590085E40E94A10081E00E94A100D0
S11301E00E94CB0080ED0E94590081E00E94A10092
S11301F080E00E94A1000E94CB0080ED0E94590083
S113020081E00E94A10088E10E94A1000E94CB002D
S113021080ED0E94590086E20E94A10081E00E94C4
S1130220A1000E94CB00089580ED0E94590087E24E
S11302300E94A10081ED0E947D000895CF93DF9379
S11302400E9414010E94B700C82FD0E0DC2FCC27F5
S11302500E94B700BE01682B072E000C880B990B77
S11302600E94E40560933E0170933F018093400136
S1130270909341010E94B700C82FD0E0DC2FCC2717
S11302800E94B700BE01682B072E000C880B990B47
S11302900E94E4056093360170933701809338011E
S11302A0909339010E94B700C82FD0E0DC2FCC27EF
S11302B00E94B700BE01682B072E000C880B990B17
S11302C00E94E40560932A0170932B0180932C0112
S11302D090932D010E94B700C82FD0E0DC2FCC27CB
S11302E00E94B700BE01682B072E000C880B990BE7
S11302F00E94E405609332017093330180933401CA
S1130300909335010E94B700C82FD0E0DC2FCC2792
S11303100E94B700BE01682B072E000C880B990BB6
S11303200E94E40560932E0170932F0180933001A5
S1130330909331010E94B700C82FD0E0DC2FCC2766
S11303400E94B700BE01682B072E000C880B990B86
S11303500E94E40560934301709344018093450136
S1130360909346010E94B700C82FD0E0DC2FCC2721
S11303700E94C100BE01682B072E000C880B990B4C
S11303800E94E40560933A0170933B0180933C0121
S113039090933D010E94CB00DF91CF9108950E947C
S11303A01E0120E030E044E253E460913E0170918C
S11303B03F0180914001909141010E943A050E94C1
S11303C0AC05072E000C880B990B0E94E4050895D8
S11303D00E941E0120E030E044E253E460913601C3
S11303E07091370180913801909139010E943A054A
S11303F00E94AC05072E000C880B990B0E94E405A3
S1130400089584B18F7E84B984B1886284B980E50B
S11304108CBD8DB581608DBD08958EBD0DB407FE74
S1130420FDCF08958EBD0DB407FEFDCF8EB50895A2
S1130430BF92CF92DF92EF92FF920F931F93CF93CD
S1130440DF936B017A0195B19E7F95B90E941202E8
S1130450B82EC0E0D0E00AC086010C0F1D1FF801C1
S113046080810E941202F80180832196CE15DF0557
S113047098F385B1816085B98B2DDF91CF911F9160
S11304800F91FF90EF90DF90CF90BF90089580621E
S11304900E94180208950E94180208950F931F9352
S11304A0CF93DF931F92CDB7DEB7F894E9E6F0E07F
S11304B08081826080838DB381608DBB789484B1A8
S11304C0826084B984B1816084B985B1816085B961
S11304D085B18D7F85B90E9401022FEF80E792E0FC
S11304E0215080409040E1F700C000000FE30093EA
S11304F0420141E050E062E471E080E00E94470282
S11305001092420141E050E062E471E081E00E9417
S1130510470280EF8093420141E050E062E471E0E1
S113052084E00E9447021092420141E050E062E4FC
S113053071E082E00E94470284E78093420141E037
S113054050E062E471E085E00E9447028EE080930F
S1130550420141E050E062E471E086E00E9447021B
S113056010E71093420141E050E062E471E087E05B
S11305700E9447020093420141E050E062E471E0CE
S11305808CE10E94470284E08093420141E050E004
S113059062E471E08DE10E944702198340E050E07B
S11305A060E070E082EE0E94470240E050E060E0CC
S11305B070E081EE0E94470245E050E065E071E0A2
S11305C08AE00E94470245E050E060E071E080E18B
S11305D00E94470241E050E0BE016F5F7F4F82E01E
S11305E00E94470289818160898341E050E0BE0115
S11305F06F5F7F4F82E00E9447020F90DF91CF919F
S11306001F910F9108951F93CF93DF931F92CDB73E
S1130610DEB7182F41E050E0BE016F5F7F4F80E0EE
S11306200E944B02133071F128F4113059F012304A
S1130630E9F062C0153009F447C0D0F1163009F46E
S113064047C05AC0898181FD57C0826080934201AE
S113065041E050E062E471E080E00E9447028FE9EB
S11306609FE00197F1F700C0000046C089818D7FAB
S11306708093420141E050E062E471E080E00E9436
S113068047023AC0898181608093420141E050E091
S113069062E471E080E00E94470280E780934201B7
S11306A041E050E062E471E087E00E94470224C028
S11306B089818E7F8093420141E050E062E471E0E1
S11306C080E00E94470218C085B18D7F85B914C0AF
S11306D089818E7F8093420141E050E062E471E0C1
S11306E080E00E94470285B1826085B98BE291E087
S11306F00197F1F700C000000F90DF91CF911F9197
S1130700089583E00E94030385B1826085B98BE27A
S113071091E00197F1F700C000000895CF92DF92B5
S1130720EF92FF920F931F93CF93DF93CDB7DEB772
S1130730A0970FB6F894DEBF0FBECDBF7C0100E2D8
S1130740CE010196FC01202F11922A95E9F7B701F9
S11307500E948206F70101900020E9F731971E2FCD
S11307601E1984E00E94030340E050E060E070E062
S113077082EE0E94470240E050E060E070E081EECB
S11307800E9447020093420141E050E062E471E0BC
S113079087E00E94470241E050E062E471E080E0BB
S11307A00E944B028091420180648093420141E0A7
S11307B050E062E471E080E00E94470285B18E7FE0
S11307C085B980EB0E940D020AC067018FEFC81A39
S11307D0D80AF70180810E940D02102F76010FEFD5
S11307E0010F1111F2CF80E00E940D0285B18160EA
S11307F085B985B1826085B9F8E2FA95F1F785B1DA
S11308008D7F85B941E050E062E471E087E00E94A9
S11308104B0207C041E050E062E471E087E00E94CF
S11308204B028091420185FFF5CFCE0101969F9343
S11308308F938CE091E09F938F930E94890641E00F
S113084050E062E471E080E00E944B02809142013A
S11308508F7B8093420141E050E062E471E080E0EC
S11308600E9447020E9481030F900F900F900F90F7
S113087081E0A0960FB6F894DEBF0FBECDBFDF9126
S1130880CF911F910F91FF90EF90DF90CF9008953B
S113089087B18C7F87B987E880937A0080E480935E
S11308A07C0008958770806480937C00EAE7F0E020
S11308B080818064808380917A0084FFFCCFEAE7A2
S11308C0F0E08081806180838FEC97E00197F1F7FD
S11308D000C00000809178009091790008950E94F2
S11308E05204BC01990F880B990B0E94E40526E67B
S11308F036E646E351E40E943A050E94AC05CB017A
S11309000895109229011092280108951092270148
S1130910109226010895CF93DF93CDB7DEB7C0566A
S1130920D1090FB6F894DEBF0FBECDBF8FEF84B9E7
S11309308AB18B7F8AB98AB1877F8AB98BB18C607F
S11309408BB917B80E9453000E94D3000E94480438
S11309500E944E020E948104FE01EF5BFF4F80E281
S1130960DF011D928A95E9F7809128019091290170
S1130970892BE1F11EE17E97DF01812F1D928A957B
S1130980E9F740E250E061E070E0CE0181960E9418
S11309907006FE013396DF011D921A95E9F740E2D5
S11309A050E061E070E0CE0101960E9470060E9462
S11309B0E8010E94AC054B015C010E94CF010E943A
S11309C0AC056B017C01B401CE0181960E947706CF
S11309D0B601CE0101960E947706CE0181960E944F
S11309E08E03CE0101960E948E03B4CF0E9486042A
S11309F081E490E09AA389A3FE01B3968EE1DF011E
S1130A001D928A95E9F78091260190912701892BFF
S1130A10A9F040E250E061E070E0CE0181960E94CE
S1130A20700680E00E946F04BC01CE0181960E9492
S1130A307706CE0181960E948E038CCFFE013396F9
S1130A408EE1DF011D928A95E9F740E250E061E012
S1130A5070E0CE0101960E94700681E00E946F044E
S1130A60BC01CE0101960E947706CE0101960E9438
S1130A708E0370CF0E944E050C9436060E942F06FA
S1130A8058F00E94280640F029F45F3F29F00C94A6
S1130A901F0651110C946A060C9425060E94470601
S1130AA068F39923B1F3552391F3951B550BBB2799
S1130AB0AA2762177307840738F09F5F5F4F220FDE
S1130AC0331F441FAA1FA9F335D00E2E3AF0E0E8D5
S1130AD032D091505040E695001CCAF72BD0FE2F1F
S1130AE029D0660F771F881FBB1F261737074807B3
S1130AF0AB07B0E809F0BB0B802DBF01FF2793586B
S1130B005F4F3AF09E3F510578F00C941F060C9409
S1130B106A065F3FE4F3983ED4F38695779567952C
S1130B20B795F7959F5FC9F7880F911D969587959F
S1130B3097F90895E1E0660F771F881FBB1F6217BE
S1130B4073078407BA0720F0621B730B840BBA0B7C
S1130B50EE1F88F7E09508950E94B3056894B111DB
S1130B600C946A0608950E944F0688F09F5798F0E7
S1130B70B92F9927B751B0F0E1F0660F771F881F9E
S1130B80991F1AF0BA95C9F714C0B13091F00E94B8
S1130B906906B1E008950C946906672F782F8827B9
S1130BA0B85F39F0B93FCCF3869577956795B395DF
S1130BB0D9F73EF490958095709561957F4F8F4F4E
S1130BC09F4F0895E89409C097FB3EF49095809553
S1130BD0709561957F4F8F4F9F4F9923A9F0F92FFF
S1130BE096E9BB279395F695879577956795B7957D
S1130BF0F111F8CFFAF4BB0F11F460FF1BC06F5F63
S1130C007F4F8F4F9F4F16C0882311F096E911C074
S1130C10772321F09EE8872F762F05C0662371F095
S1130C2096E8862F70E060E02AF09A95660F771FA9
S1130C30881FDAF7880F9695879597F9089597F99D
S1130C409F6780E870E060E008959FEF80EC08956E
S1130C5000240A9416161706180609060895002497
S1130C600A9412161306140605060895092E039411
S1130C70000C11F4882352F0BB0F40F4BF2B11F485
S1130C8060FF04C06F5F7F4F8F4F9F4F089557FDE4
S1130C909058440F551F59F05F3F71F04795880FE6
S1130CA097FB991F61F09F3F79F08795089512167D
S1130CB013061406551FF2CF4695F1DF08C0161629
S1130CC017061806991FF1CF8695710561050894DA
S1130CD00895E894BB2766277727CB0197F90895F1
S1130CE0DC0101C06D9341505040E0F70895FB01D1
S1130CF0DC010D900020E9F7119701900D9200207E
S1130D00E1F70895FB01DC0101900D920020E1F769
S1130D100895A0E0B0E0EFE8F6E00C944009AE01DD
S1130D204B5F5F4FFA0161917191AF01809149016D
S1130D3090914A010E949F06E2E00C945C09ABE0AA
S1130D40B0E0E5EAF6E00C9430096C017B018A011D
S1130D50FC0117821682838181FFCCC1CE010196EA
S1130D603C01F6019381F70193FD859193FF8191F5
S1130D707F01882309F4BAC1853239F493FD859142
S1130D8093FF81917F01853229F4B60190E00E949E
S1130D909608E7CF912C212C312CFFE1F315D8F0E4
S1130DA08B3279F038F4803279F08332A1F4232D38
S1130DB020611DC08D3261F0803369F4232D2160E0
S1130DC016C0832D8260382EE32DE4603E2E2AC0A7
S1130DD0F32DF8601DC037FC2DC020ED280F2A30FC
S1130DE040F08E32B9F436FC81C1232D2064322EBA
S1130DF019C036FE06C08AE0989E200D1124922E5A
S1130E0011C0EAE02E9E200D1124222EF32DF06253
S1130E103F2E08C08C3621F4832D8068382E02C002
S1130E20883641F4F70193FD859193FF81917F0109
S1130E308111B3CF982F9F7D9554933028F40C5F84
S1130E401F4F9FE399830DC0833631F0833771F0D0
S1130E50833509F059C021C0F801808189830E5F70
S1130E601F4F88248394912C530113C02801F2E06E
S1130E704F0E511CF801A080B18036FE03C0692DCD
S1130E8070E002C06FEF7FEFC5010E948B084C0138
S1130E908201F32DFF773F2E16C0280122E0420E77
S1130EA0511CF801A080B18036FE03C0692D70E0AA
S1130EB002C06FEF7FEFC5010E9480084C01F32D43
S1130EC0F0683F2E820133FC1BC0822D90E088160F
S1130ED09906B0F4B60180E290E00E9496082A9444
S1130EE0F4CFF50137FC859137FE81915F01B6019E
S1130EF090E00E94960821102A9421E0821A910819
S1130F008114910471F7E8C0843611F0893641F5F3
S1130F10F80137FE07C060817181828193810C5F83
S1130F201F4F08C060817181072E000C880B990B3C
S1130F300E5F1F4FF32DFF763F2E97FF09C090954C
S1130F408095709561957F4F8F4F9F4FF0683F2E2E
S1130F502AE030E0A3010E94D208882E861845C0FA
S1130F60853731F4232D2F7EB22E2AE030E025C0C0
S1130F70932D997FB92E8F36C1F018F4883579F006
S1130F80B5C0803719F0883721F0B0C0E92FE0618F
S1130F90BE2EB4FE0DC0FB2DF460BF2E09C034FE7E
S1130FA00AC0292F2660B22E06C028E030E005C012
S1130FB020E130E002C020E132E0F801B7FE07C0D2
S1130FC060817181828193810C5F1F4F06C06081B3
S1130FD0718180E090E00E5F1F4FA3010E94D20850
S1130FE0882E8618FB2DFF773F2E36FE0DC0232D4D
S1130FF02E7FA22E891458F434FE0BC032FC09C093
S1131000832D8E7EA82E05C0B82CA32C03C0B82C2B
S113101001C0B92CA4FE0FC0FE01E80DF11D8081B2
S1131020803321F49A2D997EA92E09C0A2FE06C010
S1131030B394B39404C08A2D867809F0B394A3FCC6
S113104011C0A0FE06C0B21488F4280C922C9B1880
S11310500EC0B21460F4B60180E290E00E949608DB
S1131060B394F7CFB21418F42B1802C0982C212C87
S1131070A4FE10C0B60180E390E00E949608A2FE90
S113108017C0A1FC03C088E790E002C088E590E0A7
S1131090B6010CC08A2D867859F0A1FE02C08BE2FD
S11310A001C080E2A7FC8DE2B60190E00E949608A0
S11310B0891438F4B60180E390E00E9496089A946B
S11310C0F7CF8A94F301E80DF11D8081B60190E019
S11310D00E9496088110F5CF222009F442CEB60171
S11310E080E290E00E9496082A94F6CFF601868169
S11310F0978102C08FEF9FEF2B96E2E10C944C098D
S1131100FC010590615070400110D8F780959095CE
S11311108E0F9F1F0895FC016150704001900110D3
S1131120D8F7809590958E0F9F1F08950F931F9366
S1131130CF93DF93FB01238121FD03C08FEF9FEF4A
S11311402CC022FF16C04681578124813581421765
S1131150530744F4A081B1819D012F5F3F4F318338
S113116020838C93268137812F5F3F4F37832683DB
S113117014C08B01EC01FB010084F185E02D09957D
S1131180892BE1F6D80116968D919C9117970196BB
S113119017969C938E931697CE01DF91CF911F9152
S11311A00F910895FA01AA27283051F1203181F1D5
S11311B0E8946F936E7F6E5F7F4F8F4F9F4FAF4F5B
S11311C0B1E03ED0B4E03CD0670F781F891F9A1F6E
S11311D0A11D680F791F8A1F911DA11D6A0F711D22
S11311E0811D911DA11D20D009F468943F912AE02E
S11311F0269F11243019305D3193DEF6CF01089516
S1131200462F4770405D4193B3E00FD0C9F7F6CF46
S1131210462F4F70405D4A3318F0495D31FD40520E
S1131220419302D0A9F7EACFB4E0A69597958795A4
S113123077956795BA95C9F7009761057105089583
S11312409B01AC010A2E069457954795379527952F
S1131250BA95C9F7620F731F841F951FA01D0895C7
S11312602F923F924F925F926F927F928F929F92B2
S1131270AF92BF92CF92DF92EF92FF920F931F93A0
S1131280CF93DF93CDB7DEB7CA1BDB0B0FB6F89451
S1131290DEBF0FBECDBF09942A88398848885F8491
S11312A06E847D848C849B84AA84B984C884DF8002
S11312B0EE80FD800C811B81AA81B981CE0FD11DE6
S11312C00FB6F894DEBF0FBECDBFED010895F894BC
S10512D0FFCF4A
S11312D2E7E7E7E7E7E7E7E7E7E741004D65737329
S11312E26167652073656E743A2025730A0066612E
S10912F2696C6564000054
S9030000FC
