:100000000C9434000C9451000C9451000C94510049
:100010000C9451000C9451000C9451000C9451001C
:100020000C9451000C9451000C9451000C9451000C
:100030000C9451000C9451000C9451000C945100FC
:100040000C9451000C9451000C9451000C945100EC
:100050000C9451000C9451000C9451000C945100DC
:100060000C9451000C94510011241FBECFEFD4E02A
:10007000DEBFCDBF11E0A0E0B1E0E4EFF5E002C0EB
:1000800005900D92A832B107D9F721E0A8E2B1E0BE
:1000900001C01D92A934B207E1F70E94C3020C947B
:1000A000F8020C94000084B18F7E84B984B1886218
:1000B00084B980E58CBD8DB581608DBD08958EBD00
:1000C0000DB407FEFDCF8EB50895BF92CF92DF929B
:1000D000EF92FF920F931F93CF93DF936B017A01FF
:1000E0009BB19E7F9BB90E945F00B82EC0E0D0E01C
:1000F0000AC086010C0F1D1FF80180810E945F005D
:10010000F80180832196CE15DF0598F38BB18160CD
:100110008BB98B2DDF91CF911F910F91FF90EF90B5
:10012000DF90CF90BF90089580620E94650008958F
:100130000E94650008950F931F93CF93DF931F9242
:10014000CDB7DEB7F894E9E6F0E080818260808385
:100150008DB381608DBB789484B1826084B98AB19B
:1001600081608AB98BB181608BB985B18D7F85B98A
:100170000E9453002FEF80E792E021508040904092
:10018000E1F700C000000FE30093480141E050E0B8
:1001900068E471E080E00E9494001092480141E020
:1001A00050E068E471E081E00E94940080EF809369
:1001B000480141E050E068E471E084E00E9494006E
:1001C0001092480141E050E068E471E082E00E9452
:1001D000940084E78093480141E050E068E471E0D6
:1001E00085E00E9494008EE08093480141E050E059
:1001F00068E471E086E00E94940010E710934801E3
:1002000041E050E068E471E087E00E9494000093D0
:10021000480141E050E068E471E08CE10E94940004
:1002200084E08093480141E050E068E471E08DE1B2
:100230000E949400198340E050E060E070E082EE9C
:100240000E94940040E050E060E070E081EE0E9487
:10025000940045E050E065E071E08AE00E9494007F
:1002600045E050E060E071E080E10E94940041E0F0
:1002700050E0BE016F5F7F4F82E00E949400898151
:100280008160898341E050E0BE016F5F7F4F82E073
:100290000E9494000F90DF91CF911F910F910895CC
:1002A0001F93CF93DF931F92CDB7DEB7182F41E096
:1002B00050E0BE016F5F7F4F80E00E9498001330D6
:1002C00071F128F4113059F01230E9F062C01530A4
:1002D00009F447C0D0F1163009F447C05AC08981EB
:1002E00081FD57C082608093480141E050E068E49E
:1002F00071E080E00E9494008FE99FE00197F1F7A0
:1003000000C0000046C089818D7F8093480141E094
:1003100050E068E471E080E00E9494003AC0898176
:1003200081608093480141E050E068E471E080E042
:100330000E94940080E78093480141E050E068E427
:1003400071E087E00E94940024C089818E7F8093B1
:10035000480141E050E068E471E080E00E949400D0
:1003600018C085B18D7F85B914C089818E7F809337
:10037000480141E050E068E471E080E00E949400B0
:1003800085B1826085B98BE291E00197F1F700C0F9
:1003900000000F90DF91CF911F91089583E00E949C
:1003A000500185B1826085B98BE291E00197F1F748
:1003B00000C000000895CF93DF931F92CDB7DEB742
:1003C00041E050E0BE016F5F7F4F87E10E949800DF
:1003D000898180FD03C081E090E002C080E090E070
:1003E0000F90DF91CF91089580E2E8E2F1E0DF0124
:1003F0001D928A95E9F741E050E068E471E080E6FB
:100400000E94980040914801442341F050E04F5F22
:100410005F4F68E271E081E60E94650080912801EB
:10042000882369F080E48093480141E050E068E46B
:1004300071E087E00E94940088E291E0089580E4F2
:100440008093480141E050E068E471E087E00E9459
:1004500094008EE191E008959BB19F70282F207F3A
:10046000922B9BB99BB19E7F9BB99BB192609BB92C
:10047000EFECF7E03197F1F700C000009BB19D7FF2
:100480009BB92BB1F0E18F9FC0011124922F9F7077
:10049000892B8BB98BB182608BB98FEC97E0019778
:1004A000F1F700C000008BB18D7F8BB9EFECF7E066
:1004B0003197F1F700C0000008959BB19F70282F7D
:1004C000207F922B9BB99BB191609BB99BB19260AD
:1004D0009BB9EFECF7E03197F1F700C000009BB15A
:1004E0009D7F9BB92BB1F0E18F9FC0011124922F0A
:1004F0009F70892B8BB98BB182608BB98FEC97E0A1
:100500000197F1F700C000008BB18D7F8BB9EFEC44
:10051000F7E03197F1F700C0000008958FEF8AB936
:100520008FE99FE00197F1F700C0000082E00E9490
:100530002C0288E20E942C028CE00E942C0286E0B1
:100540000E942C0281E00E942C0208950F931F93B9
:10055000CF93DF938C01C0E0D0E003C00E945D0226
:100560002196F801EC0FFD1F80818111F7CFDF91FB
:10057000CF911F910F91089581E00E942C0282E09B
:100580000E942C020895CF93DF93CDB7DEB7A097DA
:100590000FB6F894DEBF0FBECDBF8FEF8AB987B913
:1005A00014B80E948E020E94BC020E949B000E940E
:1005B000CE0185E291E00E94A6020E94DB01892B18
:1005C000B1F30E94F401BC01CE0101960E94F10238
:1005D000CE0101960E94A60285E291E00E94A60249
:1005E000E6CFFB01DC0101900D920020E1F70895B8
:0405F000F894FFCFAD
:1005F400E7E7E7E7E7E7E7E7E7E741004D65737318
:100604006167652073656E743A2025730A0066611C
:08061400696C656400500000F0
:00000001FF
